{
  "contractName": "SimpleVoting",
  "abi": [
    {
      "inputs": [],
      "stateMutability": "nonpayable",
      "type": "constructor"
    },
    {
      "anonymous": false,
      "inputs": [
        {
          "indexed": false,
          "internalType": "uint256",
          "name": "proposalId",
          "type": "uint256"
        }
      ],
      "name": "ProposalRegisteredEvent",
      "type": "event"
    },
    {
      "anonymous": false,
      "inputs": [],
      "name": "ProposalsRegistrationEndedEvent",
      "type": "event"
    },
    {
      "anonymous": false,
      "inputs": [],
      "name": "ProposalsRegistrationStartedEvent",
      "type": "event"
    },
    {
      "anonymous": false,
      "inputs": [
        {
          "indexed": false,
          "internalType": "address",
          "name": "voter",
          "type": "address"
        },
        {
          "indexed": false,
          "internalType": "uint256",
          "name": "proposalId",
          "type": "uint256"
        }
      ],
      "name": "VotedEvent",
      "type": "event"
    },
    {
      "anonymous": false,
      "inputs": [
        {
          "indexed": false,
          "internalType": "address",
          "name": "voterAddress",
          "type": "address"
        }
      ],
      "name": "VoterRegisteredEvent",
      "type": "event"
    },
    {
      "anonymous": false,
      "inputs": [],
      "name": "VotesTalliedEvent",
      "type": "event"
    },
    {
      "anonymous": false,
      "inputs": [],
      "name": "VotingSessionEndedEvent",
      "type": "event"
    },
    {
      "anonymous": false,
      "inputs": [],
      "name": "VotingSessionStartedEvent",
      "type": "event"
    },
    {
      "anonymous": false,
      "inputs": [
        {
          "indexed": false,
          "internalType": "enum SimpleVoting.WorkflowStatus",
          "name": "previousStatus",
          "type": "uint8"
        },
        {
          "indexed": false,
          "internalType": "enum SimpleVoting.WorkflowStatus",
          "name": "newStatus",
          "type": "uint8"
        }
      ],
      "name": "WorkflowStatusChangeEvent",
      "type": "event"
    },
    {
      "inputs": [],
      "name": "administrator",
      "outputs": [
        {
          "internalType": "address",
          "name": "",
          "type": "address"
        }
      ],
      "stateMutability": "view",
      "type": "function",
      "constant": true
    },
    {
      "inputs": [
        {
          "internalType": "address",
          "name": "",
          "type": "address"
        }
      ],
      "name": "pluralvoters",
      "outputs": [
        {
          "internalType": "bool",
          "name": "isRegistered",
          "type": "bool"
        },
        {
          "internalType": "uint256",
          "name": "votesCast",
          "type": "uint256"
        }
      ],
      "stateMutability": "view",
      "type": "function",
      "constant": true
    },
    {
      "inputs": [
        {
          "internalType": "uint256",
          "name": "",
          "type": "uint256"
        }
      ],
      "name": "proposals",
      "outputs": [
        {
          "internalType": "string",
          "name": "description",
          "type": "string"
        },
        {
          "internalType": "uint256",
          "name": "voteCount",
          "type": "uint256"
        }
      ],
      "stateMutability": "view",
      "type": "function",
      "constant": true
    },
    {
      "inputs": [
        {
          "internalType": "address",
          "name": "",
          "type": "address"
        }
      ],
      "name": "voters",
      "outputs": [
        {
          "internalType": "bool",
          "name": "isRegistered",
          "type": "bool"
        },
        {
          "internalType": "bool",
          "name": "hasVoted",
          "type": "bool"
        },
        {
          "internalType": "uint256",
          "name": "votedProposalId",
          "type": "uint256"
        }
      ],
      "stateMutability": "view",
      "type": "function",
      "constant": true
    },
    {
      "inputs": [],
      "name": "workflowStatus",
      "outputs": [
        {
          "internalType": "enum SimpleVoting.WorkflowStatus",
          "name": "",
          "type": "uint8"
        }
      ],
      "stateMutability": "view",
      "type": "function",
      "constant": true
    },
    {
      "inputs": [
        {
          "internalType": "address",
          "name": "_voterAddress",
          "type": "address"
        }
      ],
      "name": "registerVoter",
      "outputs": [],
      "stateMutability": "nonpayable",
      "type": "function"
    },
    {
      "inputs": [],
      "name": "startProposalsRegistration",
      "outputs": [],
      "stateMutability": "nonpayable",
      "type": "function"
    },
    {
      "inputs": [],
      "name": "endProposalsRegistration",
      "outputs": [],
      "stateMutability": "nonpayable",
      "type": "function"
    },
    {
      "inputs": [
        {
          "internalType": "string",
          "name": "proposalDescription",
          "type": "string"
        }
      ],
      "name": "registerProposal",
      "outputs": [],
      "stateMutability": "nonpayable",
      "type": "function"
    },
    {
      "inputs": [],
      "name": "getProposalsNumber",
      "outputs": [
        {
          "internalType": "uint256",
          "name": "",
          "type": "uint256"
        }
      ],
      "stateMutability": "view",
      "type": "function",
      "constant": true
    },
    {
      "inputs": [
        {
          "internalType": "uint256",
          "name": "index",
          "type": "uint256"
        }
      ],
      "name": "getProposalDescription",
      "outputs": [
        {
          "internalType": "string",
          "name": "",
          "type": "string"
        }
      ],
      "stateMutability": "view",
      "type": "function",
      "constant": true
    },
    {
      "inputs": [],
      "name": "startVotingSession",
      "outputs": [],
      "stateMutability": "nonpayable",
      "type": "function"
    },
    {
      "inputs": [],
      "name": "endVotingSession",
      "outputs": [],
      "stateMutability": "nonpayable",
      "type": "function"
    },
    {
      "inputs": [
        {
          "internalType": "uint256",
          "name": "proposalId",
          "type": "uint256"
        }
      ],
      "name": "vote",
      "outputs": [],
      "stateMutability": "nonpayable",
      "type": "function"
    },
    {
      "inputs": [
        {
          "internalType": "uint256",
          "name": "proposalId",
          "type": "uint256"
        },
        {
          "internalType": "uint256",
          "name": "votes",
          "type": "uint256"
        }
      ],
      "name": "pluralVote",
      "outputs": [],
      "stateMutability": "nonpayable",
      "type": "function"
    },
    {
      "inputs": [],
      "name": "tallyVotes",
      "outputs": [],
      "stateMutability": "nonpayable",
      "type": "function"
    },
    {
      "inputs": [],
      "name": "getWinningProposalId",
      "outputs": [
        {
          "internalType": "uint256",
          "name": "",
          "type": "uint256"
        }
      ],
      "stateMutability": "view",
      "type": "function",
      "constant": true
    },
    {
      "inputs": [],
      "name": "getWinningProposalDescription",
      "outputs": [
        {
          "internalType": "string",
          "name": "",
          "type": "string"
        }
      ],
      "stateMutability": "view",
      "type": "function",
      "constant": true
    },
    {
      "inputs": [],
      "name": "getWinningProposaVoteCounts",
      "outputs": [
        {
          "internalType": "uint256",
          "name": "",
          "type": "uint256"
        }
      ],
      "stateMutability": "view",
      "type": "function",
      "constant": true
    },
    {
      "inputs": [
        {
          "internalType": "address",
          "name": "_voterAddress",
          "type": "address"
        }
      ],
      "name": "isRegisteredVoter",
      "outputs": [
        {
          "internalType": "bool",
          "name": "",
          "type": "bool"
        }
      ],
      "stateMutability": "view",
      "type": "function",
      "constant": true
    },
    {
      "inputs": [
        {
          "internalType": "address",
          "name": "_address",
          "type": "address"
        }
      ],
      "name": "isAdministrator",
      "outputs": [
        {
          "internalType": "bool",
          "name": "",
          "type": "bool"
        }
      ],
      "stateMutability": "view",
      "type": "function",
      "constant": true
    },
    {
      "inputs": [],
      "name": "getWorkflowStatus",
      "outputs": [
        {
          "internalType": "enum SimpleVoting.WorkflowStatus",
          "name": "",
          "type": "uint8"
        }
      ],
      "stateMutability": "view",
      "type": "function",
      "constant": true
    }
  ],
  "bytecode": "0x608060405234801561001057600080fd5b5033600060016101000a81548173ffffffffffffffffffffffffffffffffffffffff021916908373ffffffffffffffffffffffffffffffffffffffff16021790555060008060006101000a81548160ff0219169083600581111561007757610076610081565b5b02179055506100b0565b7f4e487b7100000000000000000000000000000000000000000000000000000000600052602160045260246000fd5b6129a580620000c06000396000f3fe608060405234801561001057600080fd5b50600436106101425760003560e01c80635b8f7bbd116100b8578063da36cffe1161007c578063da36cffe14610341578063e09b8c7914610371578063e81e977b1461037b578063ee74c67814610399578063f53d0a8e146103a3578063f75d64a6146103c157610142565b80635b8f7bbd146102ac5780636c297445146102dd578063a1edffa2146102e7578063a3ec138d14610305578063a7bfab161461033757610142565b8063229acb171161010a578063229acb17146101fe5780632f95355b1461022e578063378a21781461024a57806337d05ddc1461025457806338db6dd31461027257806341b1b0461461028e57610142565b80630121b93f14610147578063013cf08b146101635780630642c9bd146101945780630a2eb301146101b05780632016e3c1146101e0575b600080fd5b610161600480360381019061015c9190611c68565b6103df565b005b61017d60048036038101906101789190611c68565b61068c565b60405161018b929190611d3d565b60405180910390f35b6101ae60048036038101906101a99190611d6d565b610748565b005b6101ca60048036038101906101c59190611e0b565b610a18565b6040516101d79190611e53565b60405180910390f35b6101e8610a71565b6040516101f59190611e6e565b60405180910390f35b61021860048036038101906102139190611c68565b610b13565b6040516102259190611e89565b60405180910390f35b61024860048036038101906102439190611fe0565b610bca565b005b610252610d82565b005b61025c610fae565b6040516102699190611e89565b60405180910390f35b61028c60048036038101906102879190611e0b565b6110d8565b005b610296611349565b6040516102a39190611e6e565b60405180910390f35b6102c660048036038101906102c19190611e0b565b611356565b6040516102d4929190612029565b60405180910390f35b6102e5611387565b005b6102ef61152a565b6040516102fc91906120c9565b60405180910390f35b61031f600480360381019061031a9190611e0b565b61153b565b60405161032e939291906120e4565b60405180910390f35b61033f61157f565b005b61035b60048036038101906103569190611e0b565b611722565b6040516103689190611e53565b60405180910390f35b61037961177b565b005b61038361191f565b6040516103909190611e6e565b60405180910390f35b6103a161199c565b005b6103ab611b3f565b6040516103b8919061212a565b60405180910390f35b6103c9611b65565b6040516103d691906120c9565b60405180910390f35b600260003373ffffffffffffffffffffffffffffffffffffffff1673ffffffffffffffffffffffffffffffffffffffff16815260200190815260200160002060000160009054906101000a900460ff1661046e576040517f08c379a0000000000000000000000000000000000000000000000000000000008152600401610465906121b7565b60405180910390fd5b6003600581111561048257610481612052565b5b60008054906101000a900460ff1660058111156104a2576104a1612052565b5b146104e2576040517f08c379a00000000000000000000000000000000000000000000000000000000081526004016104d990612249565b60405180910390fd5b600160003373ffffffffffffffffffffffffffffffffffffffff1673ffffffffffffffffffffffffffffffffffffffff16815260200190815260200160002060000160019054906101000a900460ff1615610572576040517f08c379a0000000000000000000000000000000000000000000000000000000008152600401610569906122b5565b60405180910390fd5b60018060003373ffffffffffffffffffffffffffffffffffffffff1673ffffffffffffffffffffffffffffffffffffffff16815260200190815260200160002060000160016101000a81548160ff02191690831515021790555080600160003373ffffffffffffffffffffffffffffffffffffffff1673ffffffffffffffffffffffffffffffffffffffff16815260200190815260200160002060010181905550600160038281548110610629576106286122d5565b5b906000526020600020906002020160010160008282546106499190612333565b925050819055507f0902475a854b82199b4f5d6b81327ec4c4ec077ce0356a106ddc2748c5285ed33382604051610681929190612389565b60405180910390a150565b6003818154811061069c57600080fd5b90600052602060002090600202016000915090508060000180546106bf906123e1565b80601f01602080910402602001604051908101604052809291908181526020018280546106eb906123e1565b80156107385780601f1061070d57610100808354040283529160200191610738565b820191906000526020600020905b81548152906001019060200180831161071b57829003601f168201915b5050505050908060010154905082565b600260003373ffffffffffffffffffffffffffffffffffffffff1673ffffffffffffffffffffffffffffffffffffffff16815260200190815260200160002060000160009054906101000a900460ff166107d7576040517f08c379a00000000000000000000000000000000000000000000000000000000081526004016107ce906121b7565b60405180910390fd5b600360058111156107eb576107ea612052565b5b60008054906101000a900460ff16600581111561080b5761080a612052565b5b1461084b576040517f08c379a000000000000000000000000000000000000000000000000000000000815260040161084290612249565b60405180910390fd5b600a81600260003373ffffffffffffffffffffffffffffffffffffffff1673ffffffffffffffffffffffffffffffffffffffff1681526020019081526020016000206001015461089b9190612333565b11156108dc576040517f08c379a00000000000000000000000000000000000000000000000000000000081526004016108d39061245f565b60405180910390fd5b80600260003373ffffffffffffffffffffffffffffffffffffffff1673ffffffffffffffffffffffffffffffffffffffff168152602001908152602001600020600101600082825461092e9190612333565b9250508190555080600260003373ffffffffffffffffffffffffffffffffffffffff1673ffffffffffffffffffffffffffffffffffffffff168152602001908152602001600020600201600084815260200190815260200160002060008282546109989190612333565b9250508190555080600383815481106109b4576109b36122d5565b5b906000526020600020906002020160010160008282546109d49190612333565b925050819055507f0902475a854b82199b4f5d6b81327ec4c4ec077ce0356a106ddc2748c5285ed33383604051610a0c929190612389565b60405180910390a15050565b60008060019054906101000a900473ffffffffffffffffffffffffffffffffffffffff1673ffffffffffffffffffffffffffffffffffffffff168273ffffffffffffffffffffffffffffffffffffffff16149050919050565b6000600580811115610a8657610a85612052565b5b60008054906101000a900460ff166005811115610aa657610aa5612052565b5b14610ae6576040517f08c379a0000000000000000000000000000000000000000000000000000000008152600401610add906124f1565b60405180910390fd5b600360045481548110610afc57610afb6122d5565b5b906000526020600020906002020160010154905090565b606060038281548110610b2957610b286122d5565b5b90600052602060002090600202016000018054610b45906123e1565b80601f0160208091040260200160405190810160405280929190818152602001828054610b71906123e1565b8015610bbe5780601f10610b9357610100808354040283529160200191610bbe565b820191906000526020600020905b815481529060010190602001808311610ba157829003601f168201915b50505050509050919050565b600260003373ffffffffffffffffffffffffffffffffffffffff1673ffffffffffffffffffffffffffffffffffffffff16815260200190815260200160002060000160009054906101000a900460ff16610c59576040517f08c379a0000000000000000000000000000000000000000000000000000000008152600401610c50906121b7565b60405180910390fd5b60016005811115610c6d57610c6c612052565b5b60008054906101000a900460ff166005811115610c8d57610c8c612052565b5b14610ccd576040517f08c379a0000000000000000000000000000000000000000000000000000000008152600401610cc490612583565b60405180910390fd5b60036040518060400160405280838152602001600081525090806001815401808255809150506001900390600052602060002090600202016000909190919091506000820151816000019080519060200190610d2a929190611b7b565b506020820151816001015550507fdcd2e8cd237900037efa515c36a3caa6812766647c16535dd5fc3c6fd641154c6001600380549050610d6a91906125a3565b604051610d779190611e6e565b60405180910390a150565b600060019054906101000a900473ffffffffffffffffffffffffffffffffffffffff1673ffffffffffffffffffffffffffffffffffffffff163373ffffffffffffffffffffffffffffffffffffffff1614610e12576040517f08c379a0000000000000000000000000000000000000000000000000000000008152600401610e0990612649565b60405180910390fd5b60046005811115610e2657610e25612052565b5b60008054906101000a900460ff166005811115610e4657610e45612052565b5b14610e86576040517f08c379a0000000000000000000000000000000000000000000000000000000008152600401610e7d90612701565b60405180910390fd5b60008060005b600380549050811015610f05578260038281548110610eae57610ead6122d5565b5b9060005260206000209060020201600101541115610ef25760038181548110610eda57610ed96122d5565b5b90600052602060002090600202016001015492508091505b8080610efd90612721565b915050610e8c565b508060048190555060056000806101000a81548160ff02191690836005811115610f3257610f31612052565b5b02179055507fa1f82a14ea162408785ef8969f7cf08b2bb72b081f8d4e2eda49846e52f439c660405160405180910390a17f9474022b1c97b70d3479aafe8672c447d1837ad99ae1f735eced168a65252d16600460008054906101000a900460ff16604051610fa292919061276a565b60405180910390a15050565b6060600580811115610fc357610fc2612052565b5b60008054906101000a900460ff166005811115610fe357610fe2612052565b5b14611023576040517f08c379a000000000000000000000000000000000000000000000000000000000815260040161101a906124f1565b60405180910390fd5b600360045481548110611039576110386122d5565b5b90600052602060002090600202016000018054611055906123e1565b80601f0160208091040260200160405190810160405280929190818152602001828054611081906123e1565b80156110ce5780601f106110a3576101008083540402835291602001916110ce565b820191906000526020600020905b8154815290600101906020018083116110b157829003601f168201915b5050505050905090565b600060019054906101000a900473ffffffffffffffffffffffffffffffffffffffff1673ffffffffffffffffffffffffffffffffffffffff163373ffffffffffffffffffffffffffffffffffffffff1614611168576040517f08c379a000000000000000000000000000000000000000000000000000000000815260040161115f90612649565b60405180910390fd5b6000600581111561117c5761117b612052565b5b60008054906101000a900460ff16600581111561119c5761119b612052565b5b146111dc576040517f08c379a00000000000000000000000000000000000000000000000000000000081526004016111d39061282b565b60405180910390fd5b600260008273ffffffffffffffffffffffffffffffffffffffff1673ffffffffffffffffffffffffffffffffffffffff16815260200190815260200160002060000160009054906101000a900460ff161561126c576040517f08c379a000000000000000000000000000000000000000000000000000000000815260040161126390612897565b60405180910390fd5b6001600260008373ffffffffffffffffffffffffffffffffffffffff1673ffffffffffffffffffffffffffffffffffffffff16815260200190815260200160002060000160006101000a81548160ff0219169083151502179055506000600260008373ffffffffffffffffffffffffffffffffffffffff1673ffffffffffffffffffffffffffffffffffffffff168152602001908152602001600020600101819055507f42b360c89ba65a59ac7fec024a7bbb2c21d84b5abe5b5178ba0d7e34653a81308160405161133e919061212a565b60405180910390a150565b6000600380549050905090565b60026020528060005260406000206000915090508060000160009054906101000a900460ff16908060010154905082565b600060019054906101000a900473ffffffffffffffffffffffffffffffffffffffff1673ffffffffffffffffffffffffffffffffffffffff163373ffffffffffffffffffffffffffffffffffffffff1614611417576040517f08c379a000000000000000000000000000000000000000000000000000000000815260040161140e90612649565b60405180910390fd5b6001600581111561142b5761142a612052565b5b60008054906101000a900460ff16600581111561144b5761144a612052565b5b1461148b576040517f08c379a000000000000000000000000000000000000000000000000000000000815260040161148290612583565b60405180910390fd5b60026000806101000a81548160ff021916908360058111156114b0576114af612052565b5b02179055507ff629233eb3546085ffcbbb79c947a38b98b14a6915bcc004a0c1a34ae38c29d860405160405180910390a17f9474022b1c97b70d3479aafe8672c447d1837ad99ae1f735eced168a65252d16600160008054906101000a900460ff1660405161152092919061276a565b60405180910390a1565b60008054906101000a900460ff1681565b60016020528060005260406000206000915090508060000160009054906101000a900460ff16908060000160019054906101000a900460ff16908060010154905083565b600060019054906101000a900473ffffffffffffffffffffffffffffffffffffffff1673ffffffffffffffffffffffffffffffffffffffff163373ffffffffffffffffffffffffffffffffffffffff161461160f576040517f08c379a000000000000000000000000000000000000000000000000000000000815260040161160690612649565b60405180910390fd5b6003600581111561162357611622612052565b5b60008054906101000a900460ff16600581111561164357611642612052565b5b14611683576040517f08c379a000000000000000000000000000000000000000000000000000000000815260040161167a90612249565b60405180910390fd5b60046000806101000a81548160ff021916908360058111156116a8576116a7612052565b5b02179055507f86a7e3ed2917a2b5f100160b6e558c8e7ae6e4fb8f2673d860d3f11b4f345e7260405160405180910390a17f9474022b1c97b70d3479aafe8672c447d1837ad99ae1f735eced168a65252d16600360008054906101000a900460ff1660405161171892919061276a565b60405180910390a1565b6000600260008373ffffffffffffffffffffffffffffffffffffffff1673ffffffffffffffffffffffffffffffffffffffff16815260200190815260200160002060000160009054906101000a900460ff169050919050565b600060019054906101000a900473ffffffffffffffffffffffffffffffffffffffff1673ffffffffffffffffffffffffffffffffffffffff163373ffffffffffffffffffffffffffffffffffffffff161461180b576040517f08c379a000000000000000000000000000000000000000000000000000000000815260040161180290612649565b60405180910390fd5b6000600581111561181f5761181e612052565b5b60008054906101000a900460ff16600581111561183f5761183e612052565b5b1461187f576040517f08c379a00000000000000000000000000000000000000000000000000000000081526004016118769061282b565b60405180910390fd5b60016000806101000a81548160ff021916908360058111156118a4576118a3612052565b5b02179055507f65b51a6e225dbda234ac3ca54831842456809aa60205dd84e758670106b4a6f360405160405180910390a17f9474022b1c97b70d3479aafe8672c447d1837ad99ae1f735eced168a65252d1660008060009054906101000a900460ff1660405161191592919061276a565b60405180910390a1565b600060058081111561193457611933612052565b5b60008054906101000a900460ff16600581111561195457611953612052565b5b14611994576040517f08c379a000000000000000000000000000000000000000000000000000000000815260040161198b906124f1565b60405180910390fd5b600454905090565b600060019054906101000a900473ffffffffffffffffffffffffffffffffffffffff1673ffffffffffffffffffffffffffffffffffffffff163373ffffffffffffffffffffffffffffffffffffffff1614611a2c576040517f08c379a0000000000000000000000000000000000000000000000000000000008152600401611a2390612649565b60405180910390fd5b60026005811115611a4057611a3f612052565b5b60008054906101000a900460ff166005811115611a6057611a5f612052565b5b14611aa0576040517f08c379a0000000000000000000000000000000000000000000000000000000008152600401611a979061294f565b60405180910390fd5b60036000806101000a81548160ff02191690836005811115611ac557611ac4612052565b5b02179055507ffca8377aff3a08252b769c58e6769a534922eabaaf9952691ea9cfcaed41fbd860405160405180910390a17f9474022b1c97b70d3479aafe8672c447d1837ad99ae1f735eced168a65252d16600260008054906101000a900460ff16604051611b3592919061276a565b60405180910390a1565b600060019054906101000a900473ffffffffffffffffffffffffffffffffffffffff1681565b60008060009054906101000a900460ff16905090565b828054611b87906123e1565b90600052602060002090601f016020900481019282611ba95760008555611bf0565b82601f10611bc257805160ff1916838001178555611bf0565b82800160010185558215611bf0579182015b82811115611bef578251825591602001919060010190611bd4565b5b509050611bfd9190611c01565b5090565b5b80821115611c1a576000816000905550600101611c02565b5090565b6000604051905090565b600080fd5b600080fd5b6000819050919050565b611c4581611c32565b8114611c5057600080fd5b50565b600081359050611c6281611c3c565b92915050565b600060208284031215611c7e57611c7d611c28565b5b6000611c8c84828501611c53565b91505092915050565b600081519050919050565b600082825260208201905092915050565b60005b83811015611ccf578082015181840152602081019050611cb4565b83811115611cde576000848401525b50505050565b6000601f19601f8301169050919050565b6000611d0082611c95565b611d0a8185611ca0565b9350611d1a818560208601611cb1565b611d2381611ce4565b840191505092915050565b611d3781611c32565b82525050565b60006040820190508181036000830152611d578185611cf5565b9050611d666020830184611d2e565b9392505050565b60008060408385031215611d8457611d83611c28565b5b6000611d9285828601611c53565b9250506020611da385828601611c53565b9150509250929050565b600073ffffffffffffffffffffffffffffffffffffffff82169050919050565b6000611dd882611dad565b9050919050565b611de881611dcd565b8114611df357600080fd5b50565b600081359050611e0581611ddf565b92915050565b600060208284031215611e2157611e20611c28565b5b6000611e2f84828501611df6565b91505092915050565b60008115159050919050565b611e4d81611e38565b82525050565b6000602082019050611e686000830184611e44565b92915050565b6000602082019050611e836000830184611d2e565b92915050565b60006020820190508181036000830152611ea38184611cf5565b905092915050565b600080fd5b600080fd5b7f4e487b7100000000000000000000000000000000000000000000000000000000600052604160045260246000fd5b611eed82611ce4565b810181811067ffffffffffffffff82111715611f0c57611f0b611eb5565b5b80604052505050565b6000611f1f611c1e565b9050611f2b8282611ee4565b919050565b600067ffffffffffffffff821115611f4b57611f4a611eb5565b5b611f5482611ce4565b9050602081019050919050565b82818337600083830152505050565b6000611f83611f7e84611f30565b611f15565b905082815260208101848484011115611f9f57611f9e611eb0565b5b611faa848285611f61565b509392505050565b600082601f830112611fc757611fc6611eab565b5b8135611fd7848260208601611f70565b91505092915050565b600060208284031215611ff657611ff5611c28565b5b600082013567ffffffffffffffff81111561201457612013611c2d565b5b61202084828501611fb2565b91505092915050565b600060408201905061203e6000830185611e44565b61204b6020830184611d2e565b9392505050565b7f4e487b7100000000000000000000000000000000000000000000000000000000600052602160045260246000fd5b6006811061209257612091612052565b5b50565b60008190506120a382612081565b919050565b60006120b382612095565b9050919050565b6120c3816120a8565b82525050565b60006020820190506120de60008301846120ba565b92915050565b60006060820190506120f96000830186611e44565b6121066020830185611e44565b6121136040830184611d2e565b949350505050565b61212481611dcd565b82525050565b600060208201905061213f600083018461211b565b92915050565b7f7468652063616c6c6572206f6620746869732066756e6374696f6e206d75737460008201527f2062652061207265676973746572656420766f74657200000000000000000000602082015250565b60006121a1603683611ca0565b91506121ac82612145565b604082019050919050565b600060208201905081810360008301526121d081612194565b9050919050565b7f746869732066756e6374696f6e2063616e2062652063616c6c6564206f6e6c7960008201527f20647572696e672074686520766f74696e672073657373696f6e000000000000602082015250565b6000612233603a83611ca0565b915061223e826121d7565b604082019050919050565b6000602082019050818103600083015261226281612226565b9050919050565b7f7468652063616c6c65722068617320616c726561647920766f74656400000000600082015250565b600061229f601c83611ca0565b91506122aa82612269565b602082019050919050565b600060208201905081810360008301526122ce81612292565b9050919050565b7f4e487b7100000000000000000000000000000000000000000000000000000000600052603260045260246000fd5b7f4e487b7100000000000000000000000000000000000000000000000000000000600052601160045260246000fd5b600061233e82611c32565b915061234983611c32565b9250827fffffffffffffffffffffffffffffffffffffffffffffffffffffffffffffffff0382111561237e5761237d612304565b5b828201905092915050565b600060408201905061239e600083018561211b565b6123ab6020830184611d2e565b9392505050565b7f4e487b7100000000000000000000000000000000000000000000000000000000600052602260045260246000fd5b600060028204905060018216806123f957607f821691505b6020821081141561240d5761240c6123b2565b5b50919050565b7f546f6f206d616e7920766f746573210000000000000000000000000000000000600082015250565b6000612449600f83611ca0565b915061245482612413565b602082019050919050565b600060208201905081810360008301526124788161243c565b9050919050565b7f746869732066756e6374696f6e2063616e2062652063616c6c6564206f6e6c7960008201527f20616674657220766f7465732068617665206265656e2074616c6c6965640000602082015250565b60006124db603e83611ca0565b91506124e68261247f565b604082019050919050565b6000602082019050818103600083015261250a816124ce565b9050919050565b7f746869732066756e6374696f6e2063616e2062652063616c6c6564206f6e6c7960008201527f20647572696e672070726f706f73616c7320726567697374726174696f6e0000602082015250565b600061256d603e83611ca0565b915061257882612511565b604082019050919050565b6000602082019050818103600083015261259c81612560565b9050919050565b60006125ae82611c32565b91506125b983611c32565b9250828210156125cc576125cb612304565b5b828203905092915050565b7f7468652063616c6c6572206f6620746869732066756e6374696f6e206d75737460008201527f206265207468652061646d696e6973747261746f720000000000000000000000602082015250565b6000612633603583611ca0565b915061263e826125d7565b604082019050919050565b6000602082019050818103600083015261266281612626565b9050919050565b7f746869732066756e6374696f6e2063616e2062652063616c6c6564206f6e6c7960008201527f2061667465722074686520766f74696e672073657373696f6e2068617320656e60208201527f6465640000000000000000000000000000000000000000000000000000000000604082015250565b60006126eb604383611ca0565b91506126f682612669565b606082019050919050565b6000602082019050818103600083015261271a816126de565b9050919050565b600061272c82611c32565b91507fffffffffffffffffffffffffffffffffffffffffffffffffffffffffffffffff82141561275f5761275e612304565b5b600182019050919050565b600060408201905061277f60008301856120ba565b61278c60208301846120ba565b9392505050565b7f746869732066756e6374696f6e2063616e2062652063616c6c6564206f6e6c7960008201527f206265666f72652070726f706f73616c7320726567697374726174696f6e206860208201527f6173207374617274656400000000000000000000000000000000000000000000604082015250565b6000612815604a83611ca0565b915061282082612793565b606082019050919050565b6000602082019050818103600083015261284481612808565b9050919050565b7f74686520766f74657220697320616c7265616479207265676973746572656400600082015250565b6000612881601f83611ca0565b915061288c8261284b565b602082019050919050565b600060208201905081810360008301526128b081612874565b9050919050565b7f746869732066756e6374696f6e2063616e2062652063616c6c6564206f6e6c7960008201527f2061667465722070726f706f73616c7320726567697374726174696f6e20686160208201527f7320656e64656400000000000000000000000000000000000000000000000000604082015250565b6000612939604783611ca0565b9150612944826128b7565b606082019050919050565b600060208201905081810360008301526129688161292c565b905091905056fea26469706673582212200b92e8feeef5b0ed3f7bffc314082a84e8b9b751f9e0de2eb5a97c3f02fc429964736f6c634300080b0033",
  "immutableReferences": {},
  "source": "pragma solidity ^0.8.3;\r\n\r\ncontract SimpleVoting {\r\n    \r\n    struct Voter {\r\n        bool isRegistered;\r\n        bool hasVoted;  \r\n        uint votedProposalId;   \r\n    }\r\n\r\n    struct PluralVoter{\r\n        bool isRegistered;\r\n        uint votesCast;\r\n        mapping(uint => uint) votedProposalsId;\r\n        // fixed competency;\r\n    }\r\n\r\n    struct Proposal {\r\n        string description;   \r\n        // string profile;\r\n        uint voteCount; \r\n    }\r\n\r\n    enum WorkflowStatus {\r\n        RegisteringVoters, \r\n        ProposalsRegistrationStarted,\r\n        ProposalsRegistrationEnded,\r\n        VotingSessionStarted,\r\n        VotingSessionEnded,\r\n        VotesTallied\r\n    }\r\n\r\n    WorkflowStatus public workflowStatus;\r\n    address public administrator;\r\n    mapping(address => Voter) public voters;\r\n    mapping(address => PluralVoter) public pluralvoters;\r\n    Proposal[] public proposals;\r\n    uint private winningProposalId;\r\n\r\n    modifier onlyAdministrator() {\r\n       require(msg.sender == administrator, \r\n\r\n       \"the caller of this function must be the administrator\");\r\n       _;\r\n    }\r\n    \r\n    modifier onlyRegisteredVoter() {\r\n        require(pluralvoters[msg.sender].isRegistered, \r\n           \"the caller of this function must be a registered voter\");\r\n       _;\r\n    }\r\n    \r\n    modifier onlyDuringVotersRegistration() {\r\n        require(workflowStatus == WorkflowStatus.RegisteringVoters, \r\n           \"this function can be called only before proposals registration has started\");\r\n       _;\r\n    }\r\n    \r\n    modifier onlyDuringProposalsRegistration() {\r\n        require(workflowStatus == \r\n            WorkflowStatus.ProposalsRegistrationStarted, \r\n           \"this function can be called only during proposals registration\");\r\n       _;\r\n    }\r\n    \r\n    modifier onlyAfterProposalsRegistration() {\r\n        require(workflowStatus == WorkflowStatus.ProposalsRegistrationEnded, \r\n           \"this function can be called only after proposals registration has ended\");\r\n       _;\r\n    }\r\n    \r\n    modifier onlyDuringVotingSession() {\r\n        require(workflowStatus == WorkflowStatus.VotingSessionStarted, \r\n           \"this function can be called only during the voting session\");\r\n       _;\r\n    }\r\n    \r\n    modifier onlyAfterVotingSession() {\r\n        require(workflowStatus == WorkflowStatus.VotingSessionEnded,  \r\n           \"this function can be called only after the voting session has ended\");\r\n       _;\r\n    }\r\n    \r\n    modifier onlyAfterVotesTallied() {\r\n        require(workflowStatus == WorkflowStatus.VotesTallied,  \r\n           \"this function can be called only after votes have been tallied\");\r\n       _;\r\n    }\r\n    \r\n     event VoterRegisteredEvent (\r\n            address voterAddress\r\n     ); \r\n\r\n     event ProposalsRegistrationStartedEvent ();\r\n     \r\n     event ProposalsRegistrationEndedEvent ();\r\n     \r\n     event ProposalRegisteredEvent( \r\n         uint proposalId\r\n     );\r\n     \r\n     event VotingSessionStartedEvent ();\r\n     \r\n     event VotingSessionEndedEvent ();\r\n     \r\n     event VotedEvent (\r\n         address voter,\r\n         uint proposalId\r\n     );\r\n     \r\n     event VotesTalliedEvent ();\r\n     \r\n     event WorkflowStatusChangeEvent (\r\n        WorkflowStatus previousStatus,\r\n        WorkflowStatus newStatus\r\n    );\r\n    \r\n    constructor(){\r\n        administrator = msg.sender;\r\n        workflowStatus = WorkflowStatus.RegisteringVoters;\r\n    }\r\n    \r\n    function registerVoter(address _voterAddress) \r\n        public onlyAdministrator onlyDuringVotersRegistration {\r\n        \r\n        require(!pluralvoters[_voterAddress].isRegistered, \r\n           \"the voter is already registered\");\r\n        \r\n        pluralvoters[_voterAddress].isRegistered = true;\r\n        pluralvoters[_voterAddress].votesCast = 0;\r\n        // pluralvoters[_voterAddress].votedProposalsId;\r\n        \r\n        emit VoterRegisteredEvent(_voterAddress);\r\n    }\r\n    \r\n    function startProposalsRegistration() \r\n        public onlyAdministrator onlyDuringVotersRegistration {\r\n        workflowStatus = WorkflowStatus.ProposalsRegistrationStarted;\r\n        \r\n        emit ProposalsRegistrationStartedEvent();\r\n        emit WorkflowStatusChangeEvent(\r\n            WorkflowStatus.RegisteringVoters, workflowStatus);\r\n    }\r\n    \r\n    function endProposalsRegistration() \r\n        public onlyAdministrator onlyDuringProposalsRegistration {\r\n        workflowStatus = WorkflowStatus.ProposalsRegistrationEnded;\r\n        \r\n\r\n        emit ProposalsRegistrationEndedEvent();\r\n        emit WorkflowStatusChangeEvent(\r\n            WorkflowStatus.ProposalsRegistrationStarted, workflowStatus);\r\n    }\r\n    \r\n    function registerProposal(string memory proposalDescription) \r\n        public onlyRegisteredVoter onlyDuringProposalsRegistration {\r\n        proposals.push(Proposal({\r\n            description: proposalDescription,\r\n            // profile: proposalProfile,\r\n            voteCount: 0\r\n        }));\r\n        \r\n        emit ProposalRegisteredEvent(proposals.length - 1);\r\n    }\r\n    \r\n     function getProposalsNumber() public view\r\n         returns (uint) {\r\n         return proposals.length;\r\n     }\r\n     \r\n     function getProposalDescription(uint index) public view \r\n         returns (string memory) {\r\n         return proposals[index].description;\r\n     }    \r\n\r\n    function startVotingSession() \r\n        public onlyAdministrator onlyAfterProposalsRegistration {\r\n        workflowStatus = WorkflowStatus.VotingSessionStarted;\r\n        \r\n        emit VotingSessionStartedEvent();\r\n        emit WorkflowStatusChangeEvent(\r\n            WorkflowStatus.ProposalsRegistrationEnded, workflowStatus);\r\n    }\r\n    \r\n    function endVotingSession() \r\n        public onlyAdministrator onlyDuringVotingSession {\r\n        workflowStatus = WorkflowStatus.VotingSessionEnded;\r\n        \r\n        emit VotingSessionEndedEvent();\r\n        emit WorkflowStatusChangeEvent(\r\n            WorkflowStatus.VotingSessionStarted, workflowStatus);        \r\n    }\r\n    function vote(uint proposalId) \r\n        onlyRegisteredVoter \r\n        onlyDuringVotingSession public {\r\n        require(!voters[msg.sender].hasVoted, \r\n            \"the caller has already voted\");\r\n\r\n        voters[msg.sender].hasVoted = true;\r\n        voters[msg.sender].votedProposalId = proposalId;\r\n\r\n        proposals[proposalId].voteCount += 1;\r\n\r\n        emit VotedEvent(msg.sender, proposalId);\r\n    }\r\n\r\n    function pluralVote(uint proposalId, uint votes)\r\n        onlyRegisteredVoter\r\n        onlyDuringVotingSession public {\r\n        require(pluralvoters[msg.sender].votesCast + votes<=10, \"Too many votes!\");\r\n        pluralvoters[msg.sender].votesCast += votes;\r\n        pluralvoters[msg.sender].votedProposalsId[proposalId] += votes;\r\n        proposals[proposalId].voteCount += votes;\r\n\r\n        emit VotedEvent(msg.sender, proposalId);\r\n        }\r\n        \r\n\r\n    function tallyVotes() onlyAdministrator onlyAfterVotingSession public {\r\n        uint winningVoteCount = 0;\r\n        uint winningProposalIndex = 0;\r\n        \r\n        for (uint i = 0; i < proposals.length; i++) {\r\n            if (proposals[i].voteCount > winningVoteCount) {\r\n                winningVoteCount = proposals[i].voteCount;\r\n                winningProposalIndex = i;\r\n            }\r\n        }\r\n        \r\n        winningProposalId = winningProposalIndex;\r\n        workflowStatus = WorkflowStatus.VotesTallied;\r\n        \r\n        emit VotesTalliedEvent();\r\n        emit WorkflowStatusChangeEvent(\r\n            WorkflowStatus.VotingSessionEnded, workflowStatus);     \r\n    }\r\n    \r\n    function getWinningProposalId() onlyAfterVotesTallied public view\r\n       returns (uint) {\r\n        return winningProposalId;\r\n    }\r\n    \r\n    function getWinningProposalDescription() \r\n       onlyAfterVotesTallied public view\r\n       returns (string memory) {\r\n        return proposals[winningProposalId].description;\r\n    }  \r\n    \r\n    function getWinningProposaVoteCounts() onlyAfterVotesTallied public view\r\n       returns (uint) {\r\n        return proposals[winningProposalId].voteCount;\r\n    }   \r\n    \r\n    function isRegisteredVoter(address _voterAddress) public view\r\n        returns (bool) {\r\n        return pluralvoters[_voterAddress].isRegistered;\r\n     }\r\n     \r\n     function isAdministrator(address _address) public view \r\n         returns (bool) {\r\n         return _address == administrator;\r\n     }     \r\n     \r\n     function getWorkflowStatus() public view\r\n         returns (WorkflowStatus) {\r\n         return workflowStatus;       \r\n     }\r\n}",
  "sourcePath": "D:\\CS\\oxfordhack\\voting\\contracts\\SimpleVoting.sol",
  "compiler": {
    "name": "solc",
    "version": "0.8.11+commit.d7f03943.Emscripten.clang"
  },
  "schemaVersion": "3.4.5",
  "updatedAt": "2022-02-27T05:19:31.918Z",
  "networkType": "ethereum",
  "devdoc": {
    "kind": "dev",
    "methods": {},
    "version": 1
  },
  "userdoc": {
    "kind": "user",
    "methods": {},
    "version": 1
  }
}