{
  "contractName": "SimpleVoting",
  "abi": [
    {
      "inputs": [],
      "stateMutability": "nonpayable",
      "type": "constructor"
    },
    {
      "anonymous": false,
      "inputs": [
        {
          "indexed": false,
          "internalType": "uint256",
          "name": "proposalId",
          "type": "uint256"
        }
      ],
      "name": "ProposalRegisteredEvent",
      "type": "event"
    },
    {
      "anonymous": false,
      "inputs": [],
      "name": "ProposalsRegistrationEndedEvent",
      "type": "event"
    },
    {
      "anonymous": false,
      "inputs": [],
      "name": "ProposalsRegistrationStartedEvent",
      "type": "event"
    },
    {
      "anonymous": false,
      "inputs": [
        {
          "indexed": false,
          "internalType": "address",
          "name": "voter",
          "type": "address"
        },
        {
          "indexed": false,
          "internalType": "uint256",
          "name": "proposalId",
          "type": "uint256"
        }
      ],
      "name": "VotedEvent",
      "type": "event"
    },
    {
      "anonymous": false,
      "inputs": [
        {
          "indexed": false,
          "internalType": "address",
          "name": "voterAddress",
          "type": "address"
        }
      ],
      "name": "VoterRegisteredEvent",
      "type": "event"
    },
    {
      "anonymous": false,
      "inputs": [],
      "name": "VotesTalliedEvent",
      "type": "event"
    },
    {
      "anonymous": false,
      "inputs": [],
      "name": "VotingSessionEndedEvent",
      "type": "event"
    },
    {
      "anonymous": false,
      "inputs": [],
      "name": "VotingSessionStartedEvent",
      "type": "event"
    },
    {
      "anonymous": false,
      "inputs": [
        {
          "indexed": false,
          "internalType": "enum SimpleVoting.WorkflowStatus",
          "name": "previousStatus",
          "type": "uint8"
        },
        {
          "indexed": false,
          "internalType": "enum SimpleVoting.WorkflowStatus",
          "name": "newStatus",
          "type": "uint8"
        }
      ],
      "name": "WorkflowStatusChangeEvent",
      "type": "event"
    },
    {
      "inputs": [],
      "name": "administrator",
      "outputs": [
        {
          "internalType": "address",
          "name": "",
          "type": "address"
        }
      ],
      "stateMutability": "view",
      "type": "function"
    },
    {
      "inputs": [
        {
          "internalType": "uint256",
          "name": "",
          "type": "uint256"
        }
      ],
      "name": "proposals",
      "outputs": [
        {
          "internalType": "string",
          "name": "description",
          "type": "string"
        },
        {
          "internalType": "uint256",
          "name": "voteCount",
          "type": "uint256"
        }
      ],
      "stateMutability": "view",
      "type": "function"
    },
    {
      "inputs": [
        {
          "internalType": "address",
          "name": "",
          "type": "address"
        }
      ],
      "name": "voters",
      "outputs": [
        {
          "internalType": "bool",
          "name": "isRegistered",
          "type": "bool"
        },
        {
          "internalType": "bool",
          "name": "hasVoted",
          "type": "bool"
        },
        {
          "internalType": "uint256",
          "name": "votedProposalId",
          "type": "uint256"
        }
      ],
      "stateMutability": "view",
      "type": "function"
    },
    {
      "inputs": [],
      "name": "workflowStatus",
      "outputs": [
        {
          "internalType": "enum SimpleVoting.WorkflowStatus",
          "name": "",
          "type": "uint8"
        }
      ],
      "stateMutability": "view",
      "type": "function"
    },
    {
      "inputs": [
        {
          "internalType": "address",
          "name": "_voterAddress",
          "type": "address"
        }
      ],
      "name": "registerVoter",
      "outputs": [],
      "stateMutability": "nonpayable",
      "type": "function"
    },
    {
      "inputs": [],
      "name": "startProposalsRegistration",
      "outputs": [],
      "stateMutability": "nonpayable",
      "type": "function"
    },
    {
      "inputs": [],
      "name": "endProposalsRegistration",
      "outputs": [],
      "stateMutability": "nonpayable",
      "type": "function"
    },
    {
      "inputs": [
        {
          "internalType": "string",
          "name": "proposalDescription",
          "type": "string"
        }
      ],
      "name": "registerProposal",
      "outputs": [],
      "stateMutability": "nonpayable",
      "type": "function"
    },
    {
      "inputs": [],
      "name": "getProposalsNumber",
      "outputs": [
        {
          "internalType": "uint256",
          "name": "",
          "type": "uint256"
        }
      ],
      "stateMutability": "view",
      "type": "function"
    },
    {
      "inputs": [
        {
          "internalType": "uint256",
          "name": "index",
          "type": "uint256"
        }
      ],
      "name": "getProposalDescription",
      "outputs": [
        {
          "internalType": "string",
          "name": "",
          "type": "string"
        }
      ],
      "stateMutability": "view",
      "type": "function"
    },
    {
      "inputs": [],
      "name": "startVotingSession",
      "outputs": [],
      "stateMutability": "nonpayable",
      "type": "function"
    },
    {
      "inputs": [],
      "name": "endVotingSession",
      "outputs": [],
      "stateMutability": "nonpayable",
      "type": "function"
    },
    {
      "inputs": [
        {
          "internalType": "uint256",
          "name": "proposalId",
          "type": "uint256"
        }
      ],
      "name": "vote",
      "outputs": [],
      "stateMutability": "nonpayable",
      "type": "function"
    },
    {
      "inputs": [],
      "name": "tallyVotes",
      "outputs": [],
      "stateMutability": "nonpayable",
      "type": "function"
    },
    {
      "inputs": [],
      "name": "getWinningProposalId",
      "outputs": [
        {
          "internalType": "uint256",
          "name": "",
          "type": "uint256"
        }
      ],
      "stateMutability": "view",
      "type": "function"
    },
    {
      "inputs": [],
      "name": "getWinningProposalDescription",
      "outputs": [
        {
          "internalType": "string",
          "name": "",
          "type": "string"
        }
      ],
      "stateMutability": "view",
      "type": "function"
    },
    {
      "inputs": [],
      "name": "getWinningProposaVoteCounts",
      "outputs": [
        {
          "internalType": "uint256",
          "name": "",
          "type": "uint256"
        }
      ],
      "stateMutability": "view",
      "type": "function"
    },
    {
      "inputs": [
        {
          "internalType": "address",
          "name": "_voterAddress",
          "type": "address"
        }
      ],
      "name": "isRegisteredVoter",
      "outputs": [
        {
          "internalType": "bool",
          "name": "",
          "type": "bool"
        }
      ],
      "stateMutability": "view",
      "type": "function"
    },
    {
      "inputs": [
        {
          "internalType": "address",
          "name": "_address",
          "type": "address"
        }
      ],
      "name": "isAdministrator",
      "outputs": [
        {
          "internalType": "bool",
          "name": "",
          "type": "bool"
        }
      ],
      "stateMutability": "view",
      "type": "function"
    },
    {
      "inputs": [],
      "name": "getWorkflowStatus",
      "outputs": [
        {
          "internalType": "enum SimpleVoting.WorkflowStatus",
          "name": "",
          "type": "uint8"
        }
      ],
      "stateMutability": "view",
      "type": "function"
    }
  ],
  "bytecode": "0x608060405234801561001057600080fd5b5033600060016101000a81548173ffffffffffffffffffffffffffffffffffffffff021916908373ffffffffffffffffffffffffffffffffffffffff16021790555060008060006101000a81548160ff0219169083600581111561007757610076610081565b5b02179055506100b0565b7f4e487b7100000000000000000000000000000000000000000000000000000000600052602160045260246000fd5b6125c680620000c06000396000f3fe608060405234801561001057600080fd5b506004361061012c5760003560e01c80636c297445116100ad578063e09b8c7911610071578063e09b8c791461030e578063e81e977b14610318578063ee74c67814610336578063f53d0a8e14610340578063f75d64a61461035e5761012c565b80636c2974451461027a578063a1edffa214610284578063a3ec138d146102a2578063a7bfab16146102d4578063da36cffe146102de5761012c565b80632f95355b116100f45780632f95355b146101fc578063378a21781461021857806337d05ddc1461022257806338db6dd31461024057806341b1b0461461025c5761012c565b80630121b93f14610131578063013cf08b1461014d5780630a2eb3011461017e5780632016e3c1146101ae578063229acb17146101cc575b600080fd5b61014b6004803603810190610146919061195e565b61037c565b005b6101676004803603810190610162919061195e565b610629565b604051610175929190611a33565b60405180910390f35b61019860048036038101906101939190611ac1565b6106e5565b6040516101a59190611b09565b60405180910390f35b6101b661073e565b6040516101c39190611b24565b60405180910390f35b6101e660048036038101906101e1919061195e565b6107e0565b6040516101f39190611b3f565b60405180910390f35b61021660048036038101906102119190611c96565b610897565b005b610220610a4f565b005b61022a610c7b565b6040516102379190611b3f565b60405180910390f35b61025a60048036038101906102559190611ac1565b610da5565b005b610264611070565b6040516102719190611b24565b60405180910390f35b61028261107d565b005b61028c611220565b6040516102999190611d56565b60405180910390f35b6102bc60048036038101906102b79190611ac1565b611231565b6040516102cb93929190611d71565b60405180910390f35b6102dc611275565b005b6102f860048036038101906102f39190611ac1565b611418565b6040516103059190611b09565b60405180910390f35b610316611471565b005b610320611615565b60405161032d9190611b24565b60405180910390f35b61033e611692565b005b610348611835565b6040516103559190611db7565b60405180910390f35b61036661185b565b6040516103739190611d56565b60405180910390f35b600160003373ffffffffffffffffffffffffffffffffffffffff1673ffffffffffffffffffffffffffffffffffffffff16815260200190815260200160002060000160009054906101000a900460ff1661040b576040517f08c379a000000000000000000000000000000000000000000000000000000000815260040161040290611e44565b60405180910390fd5b6003600581111561041f5761041e611cdf565b5b60008054906101000a900460ff16600581111561043f5761043e611cdf565b5b1461047f576040517f08c379a000000000000000000000000000000000000000000000000000000000815260040161047690611ed6565b60405180910390fd5b600160003373ffffffffffffffffffffffffffffffffffffffff1673ffffffffffffffffffffffffffffffffffffffff16815260200190815260200160002060000160019054906101000a900460ff161561050f576040517f08c379a000000000000000000000000000000000000000000000000000000000815260040161050690611f42565b60405180910390fd5b60018060003373ffffffffffffffffffffffffffffffffffffffff1673ffffffffffffffffffffffffffffffffffffffff16815260200190815260200160002060000160016101000a81548160ff02191690831515021790555080600160003373ffffffffffffffffffffffffffffffffffffffff1673ffffffffffffffffffffffffffffffffffffffff168152602001908152602001600020600101819055506001600282815481106105c6576105c5611f62565b5b906000526020600020906002020160010160008282546105e69190611fc0565b925050819055507f0902475a854b82199b4f5d6b81327ec4c4ec077ce0356a106ddc2748c5285ed3338260405161061e929190612016565b60405180910390a150565b6002818154811061063957600080fd5b906000526020600020906002020160009150905080600001805461065c9061206e565b80601f01602080910402602001604051908101604052809291908181526020018280546106889061206e565b80156106d55780601f106106aa576101008083540402835291602001916106d5565b820191906000526020600020905b8154815290600101906020018083116106b857829003601f168201915b5050505050908060010154905082565b60008060019054906101000a900473ffffffffffffffffffffffffffffffffffffffff1673ffffffffffffffffffffffffffffffffffffffff168273ffffffffffffffffffffffffffffffffffffffff16149050919050565b600060058081111561075357610752611cdf565b5b60008054906101000a900460ff16600581111561077357610772611cdf565b5b146107b3576040517f08c379a00000000000000000000000000000000000000000000000000000000081526004016107aa90612112565b60405180910390fd5b6002600354815481106107c9576107c8611f62565b5b906000526020600020906002020160010154905090565b6060600282815481106107f6576107f5611f62565b5b906000526020600020906002020160000180546108129061206e565b80601f016020809104026020016040519081016040528092919081815260200182805461083e9061206e565b801561088b5780601f106108605761010080835404028352916020019161088b565b820191906000526020600020905b81548152906001019060200180831161086e57829003601f168201915b50505050509050919050565b600160003373ffffffffffffffffffffffffffffffffffffffff1673ffffffffffffffffffffffffffffffffffffffff16815260200190815260200160002060000160009054906101000a900460ff16610926576040517f08c379a000000000000000000000000000000000000000000000000000000000815260040161091d90611e44565b60405180910390fd5b6001600581111561093a57610939611cdf565b5b60008054906101000a900460ff16600581111561095a57610959611cdf565b5b1461099a576040517f08c379a0000000000000000000000000000000000000000000000000000000008152600401610991906121a4565b60405180910390fd5b600260405180604001604052808381526020016000815250908060018154018082558091505060019003906000526020600020906002020160009091909190915060008201518160000190805190602001906109f7929190611871565b506020820151816001015550507fdcd2e8cd237900037efa515c36a3caa6812766647c16535dd5fc3c6fd641154c6001600280549050610a3791906121c4565b604051610a449190611b24565b60405180910390a150565b600060019054906101000a900473ffffffffffffffffffffffffffffffffffffffff1673ffffffffffffffffffffffffffffffffffffffff163373ffffffffffffffffffffffffffffffffffffffff1614610adf576040517f08c379a0000000000000000000000000000000000000000000000000000000008152600401610ad69061226a565b60405180910390fd5b60046005811115610af357610af2611cdf565b5b60008054906101000a900460ff166005811115610b1357610b12611cdf565b5b14610b53576040517f08c379a0000000000000000000000000000000000000000000000000000000008152600401610b4a90612322565b60405180910390fd5b60008060005b600280549050811015610bd2578260028281548110610b7b57610b7a611f62565b5b9060005260206000209060020201600101541115610bbf5760028181548110610ba757610ba6611f62565b5b90600052602060002090600202016001015492508091505b8080610bca90612342565b915050610b59565b508060038190555060056000806101000a81548160ff02191690836005811115610bff57610bfe611cdf565b5b02179055507fa1f82a14ea162408785ef8969f7cf08b2bb72b081f8d4e2eda49846e52f439c660405160405180910390a17f9474022b1c97b70d3479aafe8672c447d1837ad99ae1f735eced168a65252d16600460008054906101000a900460ff16604051610c6f92919061238b565b60405180910390a15050565b6060600580811115610c9057610c8f611cdf565b5b60008054906101000a900460ff166005811115610cb057610caf611cdf565b5b14610cf0576040517f08c379a0000000000000000000000000000000000000000000000000000000008152600401610ce790612112565b60405180910390fd5b600260035481548110610d0657610d05611f62565b5b90600052602060002090600202016000018054610d229061206e565b80601f0160208091040260200160405190810160405280929190818152602001828054610d4e9061206e565b8015610d9b5780601f10610d7057610100808354040283529160200191610d9b565b820191906000526020600020905b815481529060010190602001808311610d7e57829003601f168201915b5050505050905090565b600060019054906101000a900473ffffffffffffffffffffffffffffffffffffffff1673ffffffffffffffffffffffffffffffffffffffff163373ffffffffffffffffffffffffffffffffffffffff1614610e35576040517f08c379a0000000000000000000000000000000000000000000000000000000008152600401610e2c9061226a565b60405180910390fd5b60006005811115610e4957610e48611cdf565b5b60008054906101000a900460ff166005811115610e6957610e68611cdf565b5b14610ea9576040517f08c379a0000000000000000000000000000000000000000000000000000000008152600401610ea09061244c565b60405180910390fd5b600160008273ffffffffffffffffffffffffffffffffffffffff1673ffffffffffffffffffffffffffffffffffffffff16815260200190815260200160002060000160009054906101000a900460ff1615610f39576040517f08c379a0000000000000000000000000000000000000000000000000000000008152600401610f30906124b8565b60405180910390fd5b60018060008373ffffffffffffffffffffffffffffffffffffffff1673ffffffffffffffffffffffffffffffffffffffff16815260200190815260200160002060000160006101000a81548160ff0219169083151502179055506000600160008373ffffffffffffffffffffffffffffffffffffffff1673ffffffffffffffffffffffffffffffffffffffff16815260200190815260200160002060000160016101000a81548160ff0219169083151502179055506000600160008373ffffffffffffffffffffffffffffffffffffffff1673ffffffffffffffffffffffffffffffffffffffff168152602001908152602001600020600101819055507f42b360c89ba65a59ac7fec024a7bbb2c21d84b5abe5b5178ba0d7e34653a8130816040516110659190611db7565b60405180910390a150565b6000600280549050905090565b600060019054906101000a900473ffffffffffffffffffffffffffffffffffffffff1673ffffffffffffffffffffffffffffffffffffffff163373ffffffffffffffffffffffffffffffffffffffff161461110d576040517f08c379a00000000000000000000000000000000000000000000000000000000081526004016111049061226a565b60405180910390fd5b6001600581111561112157611120611cdf565b5b60008054906101000a900460ff16600581111561114157611140611cdf565b5b14611181576040517f08c379a0000000000000000000000000000000000000000000000000000000008152600401611178906121a4565b60405180910390fd5b60026000806101000a81548160ff021916908360058111156111a6576111a5611cdf565b5b02179055507ff629233eb3546085ffcbbb79c947a38b98b14a6915bcc004a0c1a34ae38c29d860405160405180910390a17f9474022b1c97b70d3479aafe8672c447d1837ad99ae1f735eced168a65252d16600160008054906101000a900460ff1660405161121692919061238b565b60405180910390a1565b60008054906101000a900460ff1681565b60016020528060005260406000206000915090508060000160009054906101000a900460ff16908060000160019054906101000a900460ff16908060010154905083565b600060019054906101000a900473ffffffffffffffffffffffffffffffffffffffff1673ffffffffffffffffffffffffffffffffffffffff163373ffffffffffffffffffffffffffffffffffffffff1614611305576040517f08c379a00000000000000000000000000000000000000000000000000000000081526004016112fc9061226a565b60405180910390fd5b6003600581111561131957611318611cdf565b5b60008054906101000a900460ff16600581111561133957611338611cdf565b5b14611379576040517f08c379a000000000000000000000000000000000000000000000000000000000815260040161137090611ed6565b60405180910390fd5b60046000806101000a81548160ff0219169083600581111561139e5761139d611cdf565b5b02179055507f86a7e3ed2917a2b5f100160b6e558c8e7ae6e4fb8f2673d860d3f11b4f345e7260405160405180910390a17f9474022b1c97b70d3479aafe8672c447d1837ad99ae1f735eced168a65252d16600360008054906101000a900460ff1660405161140e92919061238b565b60405180910390a1565b6000600160008373ffffffffffffffffffffffffffffffffffffffff1673ffffffffffffffffffffffffffffffffffffffff16815260200190815260200160002060000160009054906101000a900460ff169050919050565b600060019054906101000a900473ffffffffffffffffffffffffffffffffffffffff1673ffffffffffffffffffffffffffffffffffffffff163373ffffffffffffffffffffffffffffffffffffffff1614611501576040517f08c379a00000000000000000000000000000000000000000000000000000000081526004016114f89061226a565b60405180910390fd5b6000600581111561151557611514611cdf565b5b60008054906101000a900460ff16600581111561153557611534611cdf565b5b14611575576040517f08c379a000000000000000000000000000000000000000000000000000000000815260040161156c9061244c565b60405180910390fd5b60016000806101000a81548160ff0219169083600581111561159a57611599611cdf565b5b02179055507f65b51a6e225dbda234ac3ca54831842456809aa60205dd84e758670106b4a6f360405160405180910390a17f9474022b1c97b70d3479aafe8672c447d1837ad99ae1f735eced168a65252d1660008060009054906101000a900460ff1660405161160b92919061238b565b60405180910390a1565b600060058081111561162a57611629611cdf565b5b60008054906101000a900460ff16600581111561164a57611649611cdf565b5b1461168a576040517f08c379a000000000000000000000000000000000000000000000000000000000815260040161168190612112565b60405180910390fd5b600354905090565b600060019054906101000a900473ffffffffffffffffffffffffffffffffffffffff1673ffffffffffffffffffffffffffffffffffffffff163373ffffffffffffffffffffffffffffffffffffffff1614611722576040517f08c379a00000000000000000000000000000000000000000000000000000000081526004016117199061226a565b60405180910390fd5b6002600581111561173657611735611cdf565b5b60008054906101000a900460ff16600581111561175657611755611cdf565b5b14611796576040517f08c379a000000000000000000000000000000000000000000000000000000000815260040161178d90612570565b60405180910390fd5b60036000806101000a81548160ff021916908360058111156117bb576117ba611cdf565b5b02179055507ffca8377aff3a08252b769c58e6769a534922eabaaf9952691ea9cfcaed41fbd860405160405180910390a17f9474022b1c97b70d3479aafe8672c447d1837ad99ae1f735eced168a65252d16600260008054906101000a900460ff1660405161182b92919061238b565b60405180910390a1565b600060019054906101000a900473ffffffffffffffffffffffffffffffffffffffff1681565b60008060009054906101000a900460ff16905090565b82805461187d9061206e565b90600052602060002090601f01602090048101928261189f57600085556118e6565b82601f106118b857805160ff19168380011785556118e6565b828001600101855582156118e6579182015b828111156118e55782518255916020019190600101906118ca565b5b5090506118f391906118f7565b5090565b5b808211156119105760008160009055506001016118f8565b5090565b6000604051905090565b600080fd5b600080fd5b6000819050919050565b61193b81611928565b811461194657600080fd5b50565b60008135905061195881611932565b92915050565b6000602082840312156119745761197361191e565b5b600061198284828501611949565b91505092915050565b600081519050919050565b600082825260208201905092915050565b60005b838110156119c55780820151818401526020810190506119aa565b838111156119d4576000848401525b50505050565b6000601f19601f8301169050919050565b60006119f68261198b565b611a008185611996565b9350611a108185602086016119a7565b611a19816119da565b840191505092915050565b611a2d81611928565b82525050565b60006040820190508181036000830152611a4d81856119eb565b9050611a5c6020830184611a24565b9392505050565b600073ffffffffffffffffffffffffffffffffffffffff82169050919050565b6000611a8e82611a63565b9050919050565b611a9e81611a83565b8114611aa957600080fd5b50565b600081359050611abb81611a95565b92915050565b600060208284031215611ad757611ad661191e565b5b6000611ae584828501611aac565b91505092915050565b60008115159050919050565b611b0381611aee565b82525050565b6000602082019050611b1e6000830184611afa565b92915050565b6000602082019050611b396000830184611a24565b92915050565b60006020820190508181036000830152611b5981846119eb565b905092915050565b600080fd5b600080fd5b7f4e487b7100000000000000000000000000000000000000000000000000000000600052604160045260246000fd5b611ba3826119da565b810181811067ffffffffffffffff82111715611bc257611bc1611b6b565b5b80604052505050565b6000611bd5611914565b9050611be18282611b9a565b919050565b600067ffffffffffffffff821115611c0157611c00611b6b565b5b611c0a826119da565b9050602081019050919050565b82818337600083830152505050565b6000611c39611c3484611be6565b611bcb565b905082815260208101848484011115611c5557611c54611b66565b5b611c60848285611c17565b509392505050565b600082601f830112611c7d57611c7c611b61565b5b8135611c8d848260208601611c26565b91505092915050565b600060208284031215611cac57611cab61191e565b5b600082013567ffffffffffffffff811115611cca57611cc9611923565b5b611cd684828501611c68565b91505092915050565b7f4e487b7100000000000000000000000000000000000000000000000000000000600052602160045260246000fd5b60068110611d1f57611d1e611cdf565b5b50565b6000819050611d3082611d0e565b919050565b6000611d4082611d22565b9050919050565b611d5081611d35565b82525050565b6000602082019050611d6b6000830184611d47565b92915050565b6000606082019050611d866000830186611afa565b611d936020830185611afa565b611da06040830184611a24565b949350505050565b611db181611a83565b82525050565b6000602082019050611dcc6000830184611da8565b92915050565b7f7468652063616c6c6572206f6620746869732066756e6374696f6e206d75737460008201527f2062652061207265676973746572656420766f74657200000000000000000000602082015250565b6000611e2e603683611996565b9150611e3982611dd2565b604082019050919050565b60006020820190508181036000830152611e5d81611e21565b9050919050565b7f746869732066756e6374696f6e2063616e2062652063616c6c6564206f6e6c7960008201527f20647572696e672074686520766f74696e672073657373696f6e000000000000602082015250565b6000611ec0603a83611996565b9150611ecb82611e64565b604082019050919050565b60006020820190508181036000830152611eef81611eb3565b9050919050565b7f7468652063616c6c65722068617320616c726561647920766f74656400000000600082015250565b6000611f2c601c83611996565b9150611f3782611ef6565b602082019050919050565b60006020820190508181036000830152611f5b81611f1f565b9050919050565b7f4e487b7100000000000000000000000000000000000000000000000000000000600052603260045260246000fd5b7f4e487b7100000000000000000000000000000000000000000000000000000000600052601160045260246000fd5b6000611fcb82611928565b9150611fd683611928565b9250827fffffffffffffffffffffffffffffffffffffffffffffffffffffffffffffffff0382111561200b5761200a611f91565b5b828201905092915050565b600060408201905061202b6000830185611da8565b6120386020830184611a24565b9392505050565b7f4e487b7100000000000000000000000000000000000000000000000000000000600052602260045260246000fd5b6000600282049050600182168061208657607f821691505b6020821081141561209a5761209961203f565b5b50919050565b7f746869732066756e6374696f6e2063616e2062652063616c6c6564206f6e6c7960008201527f20616674657220766f7465732068617665206265656e2074616c6c6965640000602082015250565b60006120fc603e83611996565b9150612107826120a0565b604082019050919050565b6000602082019050818103600083015261212b816120ef565b9050919050565b7f746869732066756e6374696f6e2063616e2062652063616c6c6564206f6e6c7960008201527f20647572696e672070726f706f73616c7320726567697374726174696f6e0000602082015250565b600061218e603e83611996565b915061219982612132565b604082019050919050565b600060208201905081810360008301526121bd81612181565b9050919050565b60006121cf82611928565b91506121da83611928565b9250828210156121ed576121ec611f91565b5b828203905092915050565b7f7468652063616c6c6572206f6620746869732066756e6374696f6e206d75737460008201527f206265207468652061646d696e6973747261746f720000000000000000000000602082015250565b6000612254603583611996565b915061225f826121f8565b604082019050919050565b6000602082019050818103600083015261228381612247565b9050919050565b7f746869732066756e6374696f6e2063616e2062652063616c6c6564206f6e6c7960008201527f2061667465722074686520766f74696e672073657373696f6e2068617320656e60208201527f6465640000000000000000000000000000000000000000000000000000000000604082015250565b600061230c604383611996565b91506123178261228a565b606082019050919050565b6000602082019050818103600083015261233b816122ff565b9050919050565b600061234d82611928565b91507fffffffffffffffffffffffffffffffffffffffffffffffffffffffffffffffff8214156123805761237f611f91565b5b600182019050919050565b60006040820190506123a06000830185611d47565b6123ad6020830184611d47565b9392505050565b7f746869732066756e6374696f6e2063616e2062652063616c6c6564206f6e6c7960008201527f206265666f72652070726f706f73616c7320726567697374726174696f6e206860208201527f6173207374617274656400000000000000000000000000000000000000000000604082015250565b6000612436604a83611996565b9150612441826123b4565b606082019050919050565b6000602082019050818103600083015261246581612429565b9050919050565b7f74686520766f74657220697320616c7265616479207265676973746572656400600082015250565b60006124a2601f83611996565b91506124ad8261246c565b602082019050919050565b600060208201905081810360008301526124d181612495565b9050919050565b7f746869732066756e6374696f6e2063616e2062652063616c6c6564206f6e6c7960008201527f2061667465722070726f706f73616c7320726567697374726174696f6e20686160208201527f7320656e64656400000000000000000000000000000000000000000000000000604082015250565b600061255a604783611996565b9150612565826124d8565b606082019050919050565b600060208201905081810360008301526125898161254d565b905091905056fea26469706673582212201813f6d31fc8f70a95d4b1ceae1a3b44c7b45326e08ae5ac0faf903bfe2af4c364736f6c634300080b0033",
  "immutableReferences": {},
  "source": "pragma solidity ^0.8.3;\r\n\r\ncontract SimpleVoting {\r\n    \r\n    struct Voter {\r\n        bool isRegistered;\r\n        bool hasVoted;  \r\n        uint votedProposalId;   \r\n    }\r\n\r\n    struct Proposal {\r\n        string description;   \r\n        uint voteCount; \r\n    }\r\n\r\n    enum WorkflowStatus {\r\n        RegisteringVoters, \r\n        ProposalsRegistrationStarted,\r\n        ProposalsRegistrationEnded,\r\n        VotingSessionStarted,\r\n        VotingSessionEnded,\r\n        VotesTallied\r\n    }\r\n\r\n    WorkflowStatus public workflowStatus;\r\n    address public administrator;\r\n    mapping(address => Voter) public voters;\r\n    Proposal[] public proposals;\r\n    uint private winningProposalId;\r\n\r\n    modifier onlyAdministrator() {\r\n       require(msg.sender == administrator, \r\n\r\n       \"the caller of this function must be the administrator\");\r\n       _;\r\n    }\r\n    \r\n    modifier onlyRegisteredVoter() {\r\n        require(voters[msg.sender].isRegistered, \r\n           \"the caller of this function must be a registered voter\");\r\n       _;\r\n    }\r\n    \r\n    modifier onlyDuringVotersRegistration() {\r\n        require(workflowStatus == WorkflowStatus.RegisteringVoters, \r\n           \"this function can be called only before proposals registration has started\");\r\n       _;\r\n    }\r\n    \r\n    modifier onlyDuringProposalsRegistration() {\r\n        require(workflowStatus == \r\n            WorkflowStatus.ProposalsRegistrationStarted, \r\n           \"this function can be called only during proposals registration\");\r\n       _;\r\n    }\r\n    \r\n    modifier onlyAfterProposalsRegistration() {\r\n        require(workflowStatus == WorkflowStatus.ProposalsRegistrationEnded, \r\n           \"this function can be called only after proposals registration has ended\");\r\n       _;\r\n    }\r\n    \r\n    modifier onlyDuringVotingSession() {\r\n        require(workflowStatus == WorkflowStatus.VotingSessionStarted, \r\n           \"this function can be called only during the voting session\");\r\n       _;\r\n    }\r\n    \r\n    modifier onlyAfterVotingSession() {\r\n        require(workflowStatus == WorkflowStatus.VotingSessionEnded,  \r\n           \"this function can be called only after the voting session has ended\");\r\n       _;\r\n    }\r\n    \r\n    modifier onlyAfterVotesTallied() {\r\n        require(workflowStatus == WorkflowStatus.VotesTallied,  \r\n           \"this function can be called only after votes have been tallied\");\r\n       _;\r\n    }\r\n    \r\n     event VoterRegisteredEvent (\r\n            address voterAddress\r\n     ); \r\n\r\n     event ProposalsRegistrationStartedEvent ();\r\n     \r\n     event ProposalsRegistrationEndedEvent ();\r\n     \r\n     event ProposalRegisteredEvent( \r\n         uint proposalId\r\n     );\r\n     \r\n     event VotingSessionStartedEvent ();\r\n     \r\n     event VotingSessionEndedEvent ();\r\n     \r\n     event VotedEvent (\r\n         address voter,\r\n         uint proposalId\r\n     );\r\n     \r\n     event VotesTalliedEvent ();\r\n     \r\n     event WorkflowStatusChangeEvent (\r\n        WorkflowStatus previousStatus,\r\n        WorkflowStatus newStatus\r\n    );\r\n    \r\n    constructor(){\r\n        administrator = msg.sender;\r\n        workflowStatus = WorkflowStatus.RegisteringVoters;\r\n    }\r\n    \r\n    function registerVoter(address _voterAddress) \r\n        public onlyAdministrator onlyDuringVotersRegistration {\r\n        \r\n        require(!voters[_voterAddress].isRegistered, \r\n           \"the voter is already registered\");\r\n        \r\n        voters[_voterAddress].isRegistered = true;\r\n        voters[_voterAddress].hasVoted = false;\r\n        voters[_voterAddress].votedProposalId = 0;\r\n        \r\n        emit VoterRegisteredEvent(_voterAddress);\r\n    }\r\n    \r\n    function startProposalsRegistration() \r\n        public onlyAdministrator onlyDuringVotersRegistration {\r\n        workflowStatus = WorkflowStatus.ProposalsRegistrationStarted;\r\n        \r\n        emit ProposalsRegistrationStartedEvent();\r\n        emit WorkflowStatusChangeEvent(\r\n            WorkflowStatus.RegisteringVoters, workflowStatus);\r\n    }\r\n    \r\n    function endProposalsRegistration() \r\n        public onlyAdministrator onlyDuringProposalsRegistration {\r\n        workflowStatus = WorkflowStatus.ProposalsRegistrationEnded;\r\n        \r\n\r\n        emit ProposalsRegistrationEndedEvent();\r\n        emit WorkflowStatusChangeEvent(\r\n            WorkflowStatus.ProposalsRegistrationStarted, workflowStatus);\r\n    }\r\n    \r\n    function registerProposal(string memory proposalDescription) \r\n        public onlyRegisteredVoter onlyDuringProposalsRegistration {\r\n        proposals.push(Proposal({\r\n            description: proposalDescription,\r\n            voteCount: 0\r\n        }));\r\n        \r\n        emit ProposalRegisteredEvent(proposals.length - 1);\r\n    }\r\n    \r\n     function getProposalsNumber() public view\r\n         returns (uint) {\r\n         return proposals.length;\r\n     }\r\n     \r\n     function getProposalDescription(uint index) public view \r\n         returns (string memory) {\r\n         return proposals[index].description;\r\n     }    \r\n\r\n    function startVotingSession() \r\n        public onlyAdministrator onlyAfterProposalsRegistration {\r\n        workflowStatus = WorkflowStatus.VotingSessionStarted;\r\n        \r\n        emit VotingSessionStartedEvent();\r\n        emit WorkflowStatusChangeEvent(\r\n            WorkflowStatus.ProposalsRegistrationEnded, workflowStatus);\r\n    }\r\n    \r\n    function endVotingSession() \r\n        public onlyAdministrator onlyDuringVotingSession {\r\n        workflowStatus = WorkflowStatus.VotingSessionEnded;\r\n        \r\n        emit VotingSessionEndedEvent();\r\n        emit WorkflowStatusChangeEvent(\r\n            WorkflowStatus.VotingSessionStarted, workflowStatus);        \r\n    }\r\n    function vote(uint proposalId) \r\n        onlyRegisteredVoter \r\n        onlyDuringVotingSession public {\r\n        require(!voters[msg.sender].hasVoted, \r\n            \"the caller has already voted\");\r\n\r\n        voters[msg.sender].hasVoted = true;\r\n        voters[msg.sender].votedProposalId = proposalId;\r\n\r\n        proposals[proposalId].voteCount += 1;\r\n\r\n        emit VotedEvent(msg.sender, proposalId);\r\n    }\r\n\r\n    function tallyVotes() onlyAdministrator onlyAfterVotingSession public {\r\n        uint winningVoteCount = 0;\r\n        uint winningProposalIndex = 0;\r\n        \r\n        for (uint i = 0; i < proposals.length; i++) {\r\n            if (proposals[i].voteCount > winningVoteCount) {\r\n                winningVoteCount = proposals[i].voteCount;\r\n                winningProposalIndex = i;\r\n            }\r\n        }\r\n        \r\n        winningProposalId = winningProposalIndex;\r\n        workflowStatus = WorkflowStatus.VotesTallied;\r\n        \r\n        emit VotesTalliedEvent();\r\n        emit WorkflowStatusChangeEvent(\r\n            WorkflowStatus.VotingSessionEnded, workflowStatus);     \r\n    }\r\n    \r\n    function getWinningProposalId() onlyAfterVotesTallied public view\r\n       returns (uint) {\r\n        return winningProposalId;\r\n    }\r\n    \r\n    function getWinningProposalDescription() \r\n       onlyAfterVotesTallied public view\r\n       returns (string memory) {\r\n        return proposals[winningProposalId].description;\r\n    }  \r\n    \r\n    function getWinningProposaVoteCounts() onlyAfterVotesTallied public view\r\n       returns (uint) {\r\n        return proposals[winningProposalId].voteCount;\r\n    }   \r\n    \r\n    function isRegisteredVoter(address _voterAddress) public view\r\n        returns (bool) {\r\n        return voters[_voterAddress].isRegistered;\r\n     }\r\n     \r\n     function isAdministrator(address _address) public view \r\n         returns (bool) {\r\n         return _address == administrator;\r\n     }     \r\n     \r\n     function getWorkflowStatus() public view\r\n         returns (WorkflowStatus) {\r\n         return workflowStatus;       \r\n     }\r\n}",
  "sourcePath": "D:\\CS\\oxfordhack\\voting\\contracts\\SimpleVoting.sol",
  "compiler": {
    "name": "solc",
    "version": "0.8.11+commit.d7f03943.Emscripten.clang"
  },
  "schemaVersion": "3.4.5",
  "updatedAt": "2022-02-26T16:55:08.784Z",
  "devdoc": {
    "kind": "dev",
    "methods": {},
    "version": 1
  },
  "userdoc": {
    "kind": "user",
    "methods": {},
    "version": 1
  }
}